{
	"StartStopUpdateExample.sol": {
		"StartStopUpdateExample": {
			"abi": [
				{
					"inputs": [],
					"name": "sendMoney",
					"outputs": [],
					"stateMutability": "payable",
					"type": "function"
				},
				{
					"inputs": [
						{
							"internalType": "address",
							"name": "_to",
							"type": "address"
						}
					],
					"name": "withdrawAllMoney",
					"outputs": [],
					"stateMutability": "nonpayable",
					"type": "function"
				}
			],
			"devdoc": {
				"kind": "dev",
				"methods": {},
				"version": 1
			},
			"evm": {
				"assembly": "    /* \"StartStopUpdateExample.sol\":26:235  contract StartStopUpdateExample {... */\n  mstore(0x40, 0x80)\n  callvalue\n  dup1\n  iszero\n  tag_1\n  jumpi\n  0x00\n  dup1\n  revert\ntag_1:\n  pop\n  dataSize(sub_0)\n  dup1\n  dataOffset(sub_0)\n  0x00\n  codecopy\n  0x00\n  return\nstop\n\nsub_0: assembly {\n        /* \"StartStopUpdateExample.sol\":26:235  contract StartStopUpdateExample {... */\n      mstore(0x40, 0x80)\n      jumpi(tag_1, lt(calldatasize, 0x04))\n      shr(0xe0, calldataload(0x00))\n      dup1\n      0x0adec93c\n      eq\n      tag_2\n      jumpi\n      dup1\n      0xcbedbf5a\n      eq\n      tag_3\n      jumpi\n    tag_1:\n      0x00\n      dup1\n      revert\n        /* \"StartStopUpdateExample.sol\":115:233  function withdrawAllMoney(address  _to) public {... */\n    tag_2:\n      callvalue\n      dup1\n      iszero\n      tag_4\n      jumpi\n      0x00\n      dup1\n      revert\n    tag_4:\n      pop\n      tag_5\n      0x04\n      dup1\n      calldatasize\n      sub\n      dup2\n      add\n      swap1\n      tag_6\n      swap2\n      swap1\n      tag_7\n      jump\t// in\n    tag_6:\n      tag_8\n      jump\t// in\n    tag_5:\n      stop\n        /* \"StartStopUpdateExample.sol\":65:109  function sendMoney() public payable {... */\n    tag_3:\n      tag_9\n      tag_10\n      jump\t// in\n    tag_9:\n      stop\n        /* \"StartStopUpdateExample.sol\":115:233  function withdrawAllMoney(address  _to) public {... */\n    tag_8:\n        /* \"StartStopUpdateExample.sol\":180:183  _to */\n      dup1\n        /* \"StartStopUpdateExample.sol\":172:193  payable(_to).transfer */\n      0xffffffffffffffffffffffffffffffffffffffff\n      and\n        /* \"StartStopUpdateExample.sol\":172:216  payable(_to).transfer(address(this).balance) */\n      0x08fc\n        /* \"StartStopUpdateExample.sol\":194:215  address(this).balance */\n      selfbalance\n        /* \"StartStopUpdateExample.sol\":172:216  payable(_to).transfer(address(this).balance) */\n      swap1\n      dup2\n      iszero\n      mul\n      swap1\n      mload(0x40)\n      0x00\n      mload(0x40)\n      dup1\n      dup4\n      sub\n      dup2\n      dup6\n      dup9\n      dup9\n      call\n      swap4\n      pop\n      pop\n      pop\n      pop\n      iszero\n      dup1\n      iszero\n      tag_13\n      jumpi\n      returndatasize\n      0x00\n      dup1\n      returndatacopy\n      revert(0x00, returndatasize)\n    tag_13:\n      pop\n        /* \"StartStopUpdateExample.sol\":115:233  function withdrawAllMoney(address  _to) public {... */\n      pop\n      jump\t// out\n        /* \"StartStopUpdateExample.sol\":65:109  function sendMoney() public payable {... */\n    tag_10:\n      jump\t// out\n        /* \"#utility.yul\":7:146   */\n    tag_16:\n        /* \"#utility.yul\":53:58   */\n      0x00\n        /* \"#utility.yul\":91:97   */\n      dup2\n        /* \"#utility.yul\":78:98   */\n      calldataload\n        /* \"#utility.yul\":69:98   */\n      swap1\n      pop\n        /* \"#utility.yul\":107:140   */\n      tag_18\n        /* \"#utility.yul\":134:139   */\n      dup2\n        /* \"#utility.yul\":107:140   */\n      tag_19\n      jump\t// in\n    tag_18:\n        /* \"#utility.yul\":7:146   */\n      swap3\n      swap2\n      pop\n      pop\n      jump\t// out\n        /* \"#utility.yul\":152:481   */\n    tag_7:\n        /* \"#utility.yul\":211:217   */\n      0x00\n        /* \"#utility.yul\":260:262   */\n      0x20\n        /* \"#utility.yul\":248:257   */\n      dup3\n        /* \"#utility.yul\":239:246   */\n      dup5\n        /* \"#utility.yul\":235:258   */\n      sub\n        /* \"#utility.yul\":231:263   */\n      slt\n        /* \"#utility.yul\":228:347   */\n      iszero\n      tag_21\n      jumpi\n        /* \"#utility.yul\":266:345   */\n      tag_22\n      tag_23\n      jump\t// in\n    tag_22:\n        /* \"#utility.yul\":228:347   */\n    tag_21:\n        /* \"#utility.yul\":386:387   */\n      0x00\n        /* \"#utility.yul\":411:464   */\n      tag_24\n        /* \"#utility.yul\":456:463   */\n      dup5\n        /* \"#utility.yul\":447:453   */\n      dup3\n        /* \"#utility.yul\":436:445   */\n      dup6\n        /* \"#utility.yul\":432:454   */\n      add\n        /* \"#utility.yul\":411:464   */\n      tag_16\n      jump\t// in\n    tag_24:\n        /* \"#utility.yul\":401:464   */\n      swap2\n      pop\n        /* \"#utility.yul\":357:474   */\n      pop\n        /* \"#utility.yul\":152:481   */\n      swap3\n      swap2\n      pop\n      pop\n      jump\t// out\n        /* \"#utility.yul\":568:664   */\n    tag_27:\n        /* \"#utility.yul\":605:612   */\n      0x00\n        /* \"#utility.yul\":634:658   */\n      tag_29\n        /* \"#utility.yul\":652:657   */\n      dup3\n        /* \"#utility.yul\":634:658   */\n      tag_30\n      jump\t// in\n    tag_29:\n        /* \"#utility.yul\":623:658   */\n      swap1\n      pop\n        /* \"#utility.yul\":568:664   */\n      swap2\n      swap1\n      pop\n      jump\t// out\n        /* \"#utility.yul\":670:796   */\n    tag_30:\n        /* \"#utility.yul\":707:714   */\n      0x00\n        /* \"#utility.yul\":747:789   */\n      0xffffffffffffffffffffffffffffffffffffffff\n        /* \"#utility.yul\":740:745   */\n      dup3\n        /* \"#utility.yul\":736:790   */\n      and\n        /* \"#utility.yul\":725:790   */\n      swap1\n      pop\n        /* \"#utility.yul\":670:796   */\n      swap2\n      swap1\n      pop\n      jump\t// out\n        /* \"#utility.yul\":925:1042   */\n    tag_23:\n        /* \"#utility.yul\":1034:1035   */\n      0x00\n        /* \"#utility.yul\":1031:1032   */\n      dup1\n        /* \"#utility.yul\":1024:1036   */\n      revert\n        /* \"#utility.yul\":1048:1170   */\n    tag_19:\n        /* \"#utility.yul\":1121:1145   */\n      tag_36\n        /* \"#utility.yul\":1139:1144   */\n      dup2\n        /* \"#utility.yul\":1121:1145   */\n      tag_27\n      jump\t// in\n    tag_36:\n        /* \"#utility.yul\":1114:1119   */\n      dup2\n        /* \"#utility.yul\":1111:1146   */\n      eq\n        /* \"#utility.yul\":1101:1164   */\n      tag_37\n      jumpi\n        /* \"#utility.yul\":1160:1161   */\n      0x00\n        /* \"#utility.yul\":1157:1158   */\n      dup1\n        /* \"#utility.yul\":1150:1162   */\n      revert\n        /* \"#utility.yul\":1101:1164   */\n    tag_37:\n        /* \"#utility.yul\":1048:1170   */\n      pop\n      jump\t// out\n\n    auxdata: 0xa2646970667358221220a8bb1ee7b64367bd6fcc04698b3575c0b48b9769018318a183aa0d45b038f67e64736f6c63430008070033\n}\n",
				"bytecode": {
					"linkReferences": {},
					"object": "608060405234801561001057600080fd5b50610173806100206000396000f3fe6080604052600436106100295760003560e01c80630adec93c1461002e578063cbedbf5a14610057575b600080fd5b34801561003a57600080fd5b50610055600480360381019061005091906100c2565b610061565b005b61005f6100ab565b005b8073ffffffffffffffffffffffffffffffffffffffff166108fc479081150290604051600060405180830381858888f193505050501580156100a7573d6000803e3d6000fd5b5050565b565b6000813590506100bc81610126565b92915050565b6000602082840312156100d8576100d7610121565b5b60006100e6848285016100ad565b91505092915050565b60006100fa82610101565b9050919050565b600073ffffffffffffffffffffffffffffffffffffffff82169050919050565b600080fd5b61012f816100ef565b811461013a57600080fd5b5056fea2646970667358221220a8bb1ee7b64367bd6fcc04698b3575c0b48b9769018318a183aa0d45b038f67e64736f6c63430008070033",
					"opcodes": "PUSH1 0x80 PUSH1 0x40 MSTORE CALLVALUE DUP1 ISZERO PUSH2 0x10 JUMPI PUSH1 0x0 DUP1 REVERT JUMPDEST POP PUSH2 0x173 DUP1 PUSH2 0x20 PUSH1 0x0 CODECOPY PUSH1 0x0 RETURN INVALID PUSH1 0x80 PUSH1 0x40 MSTORE PUSH1 0x4 CALLDATASIZE LT PUSH2 0x29 JUMPI PUSH1 0x0 CALLDATALOAD PUSH1 0xE0 SHR DUP1 PUSH4 0xADEC93C EQ PUSH2 0x2E JUMPI DUP1 PUSH4 0xCBEDBF5A EQ PUSH2 0x57 JUMPI JUMPDEST PUSH1 0x0 DUP1 REVERT JUMPDEST CALLVALUE DUP1 ISZERO PUSH2 0x3A JUMPI PUSH1 0x0 DUP1 REVERT JUMPDEST POP PUSH2 0x55 PUSH1 0x4 DUP1 CALLDATASIZE SUB DUP2 ADD SWAP1 PUSH2 0x50 SWAP2 SWAP1 PUSH2 0xC2 JUMP JUMPDEST PUSH2 0x61 JUMP JUMPDEST STOP JUMPDEST PUSH2 0x5F PUSH2 0xAB JUMP JUMPDEST STOP JUMPDEST DUP1 PUSH20 0xFFFFFFFFFFFFFFFFFFFFFFFFFFFFFFFFFFFFFFFF AND PUSH2 0x8FC SELFBALANCE SWAP1 DUP2 ISZERO MUL SWAP1 PUSH1 0x40 MLOAD PUSH1 0x0 PUSH1 0x40 MLOAD DUP1 DUP4 SUB DUP2 DUP6 DUP9 DUP9 CALL SWAP4 POP POP POP POP ISZERO DUP1 ISZERO PUSH2 0xA7 JUMPI RETURNDATASIZE PUSH1 0x0 DUP1 RETURNDATACOPY RETURNDATASIZE PUSH1 0x0 REVERT JUMPDEST POP POP JUMP JUMPDEST JUMP JUMPDEST PUSH1 0x0 DUP2 CALLDATALOAD SWAP1 POP PUSH2 0xBC DUP2 PUSH2 0x126 JUMP JUMPDEST SWAP3 SWAP2 POP POP JUMP JUMPDEST PUSH1 0x0 PUSH1 0x20 DUP3 DUP5 SUB SLT ISZERO PUSH2 0xD8 JUMPI PUSH2 0xD7 PUSH2 0x121 JUMP JUMPDEST JUMPDEST PUSH1 0x0 PUSH2 0xE6 DUP5 DUP3 DUP6 ADD PUSH2 0xAD JUMP JUMPDEST SWAP2 POP POP SWAP3 SWAP2 POP POP JUMP JUMPDEST PUSH1 0x0 PUSH2 0xFA DUP3 PUSH2 0x101 JUMP JUMPDEST SWAP1 POP SWAP2 SWAP1 POP JUMP JUMPDEST PUSH1 0x0 PUSH20 0xFFFFFFFFFFFFFFFFFFFFFFFFFFFFFFFFFFFFFFFF DUP3 AND SWAP1 POP SWAP2 SWAP1 POP JUMP JUMPDEST PUSH1 0x0 DUP1 REVERT JUMPDEST PUSH2 0x12F DUP2 PUSH2 0xEF JUMP JUMPDEST DUP2 EQ PUSH2 0x13A JUMPI PUSH1 0x0 DUP1 REVERT JUMPDEST POP JUMP INVALID LOG2 PUSH5 0x6970667358 0x22 SLT KECCAK256 0xA8 0xBB 0x1E 0xE7 0xB6 NUMBER PUSH8 0xBD6FCC04698B3575 0xC0 0xB4 DUP12 SWAP8 PUSH10 0x18318A183AA0D45B038 0xF6 PUSH31 0x64736F6C634300080700330000000000000000000000000000000000000000 "
				},
				"gasEstimates": {
					"creation": {
						"codeDepositCost": "74200",
						"executionCost": "123",
						"totalCost": "74323"
					},
					"external": {
						"sendMoney()": "120",
						"withdrawAllMoney(address)": "infinite"
					}
				},
				"methodIdentifiers": {
					"sendMoney()": "cbedbf5a",
					"withdrawAllMoney(address)": "0adec93c"
				}
			},
			"userdoc": {
				"kind": "user",
				"methods": {},
				"version": 1
			}
		}
	}
}