{
	"data": {
		"bytecode": {
			"linkReferences": {},
			"object": "608060405234801561001057600080fd5b50610b32806100206000396000f3fe608060405234801561001057600080fd5b50600436106100ea5760003560e01c80636deecdbe1161008c578063a8a7b89511610066578063a8a7b89514610201578063b36cbc5f1461021d578063e2a4b2af14610239578063eb1b30d914610257576100ea565b80636deecdbe146101bd57806382180568146101db578063a0949422146101f7576100ea565b806326b85ee1116100c857806326b85ee11461015b578063492bfa18146101795780634f25eada1461019757806355b1ac8a146101b3576100ea565b806306540f7e146100ef578063136d6a391461010d57806325324f691461013d575b600080fd5b6100f7610273565b60405161010491906107f8565b60405180910390f35b6101276004803603810190610122919061062e565b610279565b60405161013491906107f8565b60405180910390f35b61014561029a565b60405161015291906107f8565b60405180910390f35b6101636102db565b60405161017091906107a0565b60405180910390f35b610181610301565b60405161018e91906107d6565b60405180910390f35b6101b160048036038101906101ac91906106fe565b61038f565b005b6101bb6103ac565b005b6101c56103e5565b6040516101d291906107bb565b60405180910390f35b6101f560048036038101906101f09190610688565b6103f8565b005b6101ff610412565b005b61021b6004803603810190610216919061062e565b61044b565b005b610237600480360381019061023291906106d1565b61048f565b005b610241610499565b60405161024e9190610813565b60405180910390f35b610271600480360381019061026c919061065b565b6104aa565b005b60005481565b60008173ffffffffffffffffffffffffffffffffffffffff16319050919050565b6000600160029054906101000a900473ffffffffffffffffffffffffffffffffffffffff1673ffffffffffffffffffffffffffffffffffffffff1631905090565b600160029054906101000a900473ffffffffffffffffffffffffffffffffffffffff1681565b6002805461030e90610961565b80601f016020809104026020016040519081016040528092919081815260200182805461033a90610961565b80156103875780601f1061035c57610100808354040283529160200191610387565b820191906000526020600020905b81548152906001019060200180831161036a57829003601f168201915b505050505081565b806001806101000a81548160ff021916908360ff16021790555050565b60018081819054906101000a900460ff16809291906103ca906109c4565b91906101000a81548160ff021916908360ff16021790555050565b600160009054906101000a900460ff1681565b806002908051906020019061040e9291906104c7565b5050565b60018081819054906101000a900460ff168092919061043090610937565b91906101000a81548160ff021916908360ff16021790555050565b80600160026101000a81548173ffffffffffffffffffffffffffffffffffffffff021916908373ffffffffffffffffffffffffffffffffffffffff16021790555050565b8060008190555050565b60018054906101000a900460ff1681565b80600160006101000a81548160ff02191690831515021790555050565b8280546104d390610961565b90600052602060002090601f0160209004810192826104f5576000855561053c565b82601f1061050e57805160ff191683800117855561053c565b8280016001018555821561053c579182015b8281111561053b578251825591602001919060010190610520565b5b509050610549919061054d565b5090565b5b8082111561056657600081600090555060010161054e565b5090565b600061057d61057884610853565b61082e565b90508281526020810184848401111561059957610598610a80565b5b6105a48482856108f5565b509392505050565b6000813590506105bb81610aa0565b92915050565b6000813590506105d081610ab7565b92915050565b600082601f8301126105eb576105ea610a7b565b5b81356105fb84826020860161056a565b91505092915050565b60008135905061061381610ace565b92915050565b60008135905061062881610ae5565b92915050565b60006020828403121561064457610643610a8a565b5b6000610652848285016105ac565b91505092915050565b60006020828403121561067157610670610a8a565b5b600061067f848285016105c1565b91505092915050565b60006020828403121561069e5761069d610a8a565b5b600082013567ffffffffffffffff8111156106bc576106bb610a85565b5b6106c8848285016105d6565b91505092915050565b6000602082840312156106e7576106e6610a8a565b5b60006106f584828501610604565b91505092915050565b60006020828403121561071457610713610a8a565b5b600061072284828501610619565b91505092915050565b610734816108a0565b82525050565b610743816108b2565b82525050565b600061075482610884565b61075e818561088f565b935061076e818560208601610904565b61077781610a8f565b840191505092915050565b61078b816108de565b82525050565b61079a816108e8565b82525050565b60006020820190506107b5600083018461072b565b92915050565b60006020820190506107d0600083018461073a565b92915050565b600060208201905081810360008301526107f08184610749565b905092915050565b600060208201905061080d6000830184610782565b92915050565b60006020820190506108286000830184610791565b92915050565b6000610838610849565b90506108448282610993565b919050565b6000604051905090565b600067ffffffffffffffff82111561086e5761086d610a4c565b5b61087782610a8f565b9050602081019050919050565b600081519050919050565b600082825260208201905092915050565b60006108ab826108be565b9050919050565b60008115159050919050565b600073ffffffffffffffffffffffffffffffffffffffff82169050919050565b6000819050919050565b600060ff82169050919050565b82818337600083830152505050565b60005b83811015610922578082015181840152602081019050610907565b83811115610931576000848401525b50505050565b6000610942826108e8565b91506000821415610956576109556109ee565b5b600182039050919050565b6000600282049050600182168061097957607f821691505b6020821081141561098d5761098c610a1d565b5b50919050565b61099c82610a8f565b810181811067ffffffffffffffff821117156109bb576109ba610a4c565b5b80604052505050565b60006109cf826108e8565b915060ff8214156109e3576109e26109ee565b5b600182019050919050565b7f4e487b7100000000000000000000000000000000000000000000000000000000600052601160045260246000fd5b7f4e487b7100000000000000000000000000000000000000000000000000000000600052602260045260246000fd5b7f4e487b7100000000000000000000000000000000000000000000000000000000600052604160045260246000fd5b600080fd5b600080fd5b600080fd5b600080fd5b6000601f19601f8301169050919050565b610aa9816108a0565b8114610ab457600080fd5b50565b610ac0816108b2565b8114610acb57600080fd5b50565b610ad7816108de565b8114610ae257600080fd5b50565b610aee816108e8565b8114610af957600080fd5b5056fea2646970667358221220b31330070205328d518e9341c82a99ea9735a62903ebb8f071109f71f6b7319764736f6c63430008070033",
			"opcodes": "PUSH1 0x80 PUSH1 0x40 MSTORE CALLVALUE DUP1 ISZERO PUSH2 0x10 JUMPI PUSH1 0x0 DUP1 REVERT JUMPDEST POP PUSH2 0xB32 DUP1 PUSH2 0x20 PUSH1 0x0 CODECOPY PUSH1 0x0 RETURN INVALID PUSH1 0x80 PUSH1 0x40 MSTORE CALLVALUE DUP1 ISZERO PUSH2 0x10 JUMPI PUSH1 0x0 DUP1 REVERT JUMPDEST POP PUSH1 0x4 CALLDATASIZE LT PUSH2 0xEA JUMPI PUSH1 0x0 CALLDATALOAD PUSH1 0xE0 SHR DUP1 PUSH4 0x6DEECDBE GT PUSH2 0x8C JUMPI DUP1 PUSH4 0xA8A7B895 GT PUSH2 0x66 JUMPI DUP1 PUSH4 0xA8A7B895 EQ PUSH2 0x201 JUMPI DUP1 PUSH4 0xB36CBC5F EQ PUSH2 0x21D JUMPI DUP1 PUSH4 0xE2A4B2AF EQ PUSH2 0x239 JUMPI DUP1 PUSH4 0xEB1B30D9 EQ PUSH2 0x257 JUMPI PUSH2 0xEA JUMP JUMPDEST DUP1 PUSH4 0x6DEECDBE EQ PUSH2 0x1BD JUMPI DUP1 PUSH4 0x82180568 EQ PUSH2 0x1DB JUMPI DUP1 PUSH4 0xA0949422 EQ PUSH2 0x1F7 JUMPI PUSH2 0xEA JUMP JUMPDEST DUP1 PUSH4 0x26B85EE1 GT PUSH2 0xC8 JUMPI DUP1 PUSH4 0x26B85EE1 EQ PUSH2 0x15B JUMPI DUP1 PUSH4 0x492BFA18 EQ PUSH2 0x179 JUMPI DUP1 PUSH4 0x4F25EADA EQ PUSH2 0x197 JUMPI DUP1 PUSH4 0x55B1AC8A EQ PUSH2 0x1B3 JUMPI PUSH2 0xEA JUMP JUMPDEST DUP1 PUSH4 0x6540F7E EQ PUSH2 0xEF JUMPI DUP1 PUSH4 0x136D6A39 EQ PUSH2 0x10D JUMPI DUP1 PUSH4 0x25324F69 EQ PUSH2 0x13D JUMPI JUMPDEST PUSH1 0x0 DUP1 REVERT JUMPDEST PUSH2 0xF7 PUSH2 0x273 JUMP JUMPDEST PUSH1 0x40 MLOAD PUSH2 0x104 SWAP2 SWAP1 PUSH2 0x7F8 JUMP JUMPDEST PUSH1 0x40 MLOAD DUP1 SWAP2 SUB SWAP1 RETURN JUMPDEST PUSH2 0x127 PUSH1 0x4 DUP1 CALLDATASIZE SUB DUP2 ADD SWAP1 PUSH2 0x122 SWAP2 SWAP1 PUSH2 0x62E JUMP JUMPDEST PUSH2 0x279 JUMP JUMPDEST PUSH1 0x40 MLOAD PUSH2 0x134 SWAP2 SWAP1 PUSH2 0x7F8 JUMP JUMPDEST PUSH1 0x40 MLOAD DUP1 SWAP2 SUB SWAP1 RETURN JUMPDEST PUSH2 0x145 PUSH2 0x29A JUMP JUMPDEST PUSH1 0x40 MLOAD PUSH2 0x152 SWAP2 SWAP1 PUSH2 0x7F8 JUMP JUMPDEST PUSH1 0x40 MLOAD DUP1 SWAP2 SUB SWAP1 RETURN JUMPDEST PUSH2 0x163 PUSH2 0x2DB JUMP JUMPDEST PUSH1 0x40 MLOAD PUSH2 0x170 SWAP2 SWAP1 PUSH2 0x7A0 JUMP JUMPDEST PUSH1 0x40 MLOAD DUP1 SWAP2 SUB SWAP1 RETURN JUMPDEST PUSH2 0x181 PUSH2 0x301 JUMP JUMPDEST PUSH1 0x40 MLOAD PUSH2 0x18E SWAP2 SWAP1 PUSH2 0x7D6 JUMP JUMPDEST PUSH1 0x40 MLOAD DUP1 SWAP2 SUB SWAP1 RETURN JUMPDEST PUSH2 0x1B1 PUSH1 0x4 DUP1 CALLDATASIZE SUB DUP2 ADD SWAP1 PUSH2 0x1AC SWAP2 SWAP1 PUSH2 0x6FE JUMP JUMPDEST PUSH2 0x38F JUMP JUMPDEST STOP JUMPDEST PUSH2 0x1BB PUSH2 0x3AC JUMP JUMPDEST STOP JUMPDEST PUSH2 0x1C5 PUSH2 0x3E5 JUMP JUMPDEST PUSH1 0x40 MLOAD PUSH2 0x1D2 SWAP2 SWAP1 PUSH2 0x7BB JUMP JUMPDEST PUSH1 0x40 MLOAD DUP1 SWAP2 SUB SWAP1 RETURN JUMPDEST PUSH2 0x1F5 PUSH1 0x4 DUP1 CALLDATASIZE SUB DUP2 ADD SWAP1 PUSH2 0x1F0 SWAP2 SWAP1 PUSH2 0x688 JUMP JUMPDEST PUSH2 0x3F8 JUMP JUMPDEST STOP JUMPDEST PUSH2 0x1FF PUSH2 0x412 JUMP JUMPDEST STOP JUMPDEST PUSH2 0x21B PUSH1 0x4 DUP1 CALLDATASIZE SUB DUP2 ADD SWAP1 PUSH2 0x216 SWAP2 SWAP1 PUSH2 0x62E JUMP JUMPDEST PUSH2 0x44B JUMP JUMPDEST STOP JUMPDEST PUSH2 0x237 PUSH1 0x4 DUP1 CALLDATASIZE SUB DUP2 ADD SWAP1 PUSH2 0x232 SWAP2 SWAP1 PUSH2 0x6D1 JUMP JUMPDEST PUSH2 0x48F JUMP JUMPDEST STOP JUMPDEST PUSH2 0x241 PUSH2 0x499 JUMP JUMPDEST PUSH1 0x40 MLOAD PUSH2 0x24E SWAP2 SWAP1 PUSH2 0x813 JUMP JUMPDEST PUSH1 0x40 MLOAD DUP1 SWAP2 SUB SWAP1 RETURN JUMPDEST PUSH2 0x271 PUSH1 0x4 DUP1 CALLDATASIZE SUB DUP2 ADD SWAP1 PUSH2 0x26C SWAP2 SWAP1 PUSH2 0x65B JUMP JUMPDEST PUSH2 0x4AA JUMP JUMPDEST STOP JUMPDEST PUSH1 0x0 SLOAD DUP2 JUMP JUMPDEST PUSH1 0x0 DUP2 PUSH20 0xFFFFFFFFFFFFFFFFFFFFFFFFFFFFFFFFFFFFFFFF AND BALANCE SWAP1 POP SWAP2 SWAP1 POP JUMP JUMPDEST PUSH1 0x0 PUSH1 0x1 PUSH1 0x2 SWAP1 SLOAD SWAP1 PUSH2 0x100 EXP SWAP1 DIV PUSH20 0xFFFFFFFFFFFFFFFFFFFFFFFFFFFFFFFFFFFFFFFF AND PUSH20 0xFFFFFFFFFFFFFFFFFFFFFFFFFFFFFFFFFFFFFFFF AND BALANCE SWAP1 POP SWAP1 JUMP JUMPDEST PUSH1 0x1 PUSH1 0x2 SWAP1 SLOAD SWAP1 PUSH2 0x100 EXP SWAP1 DIV PUSH20 0xFFFFFFFFFFFFFFFFFFFFFFFFFFFFFFFFFFFFFFFF AND DUP2 JUMP JUMPDEST PUSH1 0x2 DUP1 SLOAD PUSH2 0x30E SWAP1 PUSH2 0x961 JUMP JUMPDEST DUP1 PUSH1 0x1F ADD PUSH1 0x20 DUP1 SWAP2 DIV MUL PUSH1 0x20 ADD PUSH1 0x40 MLOAD SWAP1 DUP2 ADD PUSH1 0x40 MSTORE DUP1 SWAP3 SWAP2 SWAP1 DUP2 DUP2 MSTORE PUSH1 0x20 ADD DUP3 DUP1 SLOAD PUSH2 0x33A SWAP1 PUSH2 0x961 JUMP JUMPDEST DUP1 ISZERO PUSH2 0x387 JUMPI DUP1 PUSH1 0x1F LT PUSH2 0x35C JUMPI PUSH2 0x100 DUP1 DUP4 SLOAD DIV MUL DUP4 MSTORE SWAP2 PUSH1 0x20 ADD SWAP2 PUSH2 0x387 JUMP JUMPDEST DUP3 ADD SWAP2 SWAP1 PUSH1 0x0 MSTORE PUSH1 0x20 PUSH1 0x0 KECCAK256 SWAP1 JUMPDEST DUP2 SLOAD DUP2 MSTORE SWAP1 PUSH1 0x1 ADD SWAP1 PUSH1 0x20 ADD DUP1 DUP4 GT PUSH2 0x36A JUMPI DUP3 SWAP1 SUB PUSH1 0x1F AND DUP3 ADD SWAP2 JUMPDEST POP POP POP POP POP DUP2 JUMP JUMPDEST DUP1 PUSH1 0x1 DUP1 PUSH2 0x100 EXP DUP2 SLOAD DUP2 PUSH1 0xFF MUL NOT AND SWAP1 DUP4 PUSH1 0xFF AND MUL OR SWAP1 SSTORE POP POP JUMP JUMPDEST PUSH1 0x1 DUP1 DUP2 DUP2 SWAP1 SLOAD SWAP1 PUSH2 0x100 EXP SWAP1 DIV PUSH1 0xFF AND DUP1 SWAP3 SWAP2 SWAP1 PUSH2 0x3CA SWAP1 PUSH2 0x9C4 JUMP JUMPDEST SWAP2 SWAP1 PUSH2 0x100 EXP DUP2 SLOAD DUP2 PUSH1 0xFF MUL NOT AND SWAP1 DUP4 PUSH1 0xFF AND MUL OR SWAP1 SSTORE POP POP JUMP JUMPDEST PUSH1 0x1 PUSH1 0x0 SWAP1 SLOAD SWAP1 PUSH2 0x100 EXP SWAP1 DIV PUSH1 0xFF AND DUP2 JUMP JUMPDEST DUP1 PUSH1 0x2 SWAP1 DUP1 MLOAD SWAP1 PUSH1 0x20 ADD SWAP1 PUSH2 0x40E SWAP3 SWAP2 SWAP1 PUSH2 0x4C7 JUMP JUMPDEST POP POP JUMP JUMPDEST PUSH1 0x1 DUP1 DUP2 DUP2 SWAP1 SLOAD SWAP1 PUSH2 0x100 EXP SWAP1 DIV PUSH1 0xFF AND DUP1 SWAP3 SWAP2 SWAP1 PUSH2 0x430 SWAP1 PUSH2 0x937 JUMP JUMPDEST SWAP2 SWAP1 PUSH2 0x100 EXP DUP2 SLOAD DUP2 PUSH1 0xFF MUL NOT AND SWAP1 DUP4 PUSH1 0xFF AND MUL OR SWAP1 SSTORE POP POP JUMP JUMPDEST DUP1 PUSH1 0x1 PUSH1 0x2 PUSH2 0x100 EXP DUP2 SLOAD DUP2 PUSH20 0xFFFFFFFFFFFFFFFFFFFFFFFFFFFFFFFFFFFFFFFF MUL NOT AND SWAP1 DUP4 PUSH20 0xFFFFFFFFFFFFFFFFFFFFFFFFFFFFFFFFFFFFFFFF AND MUL OR SWAP1 SSTORE POP POP JUMP JUMPDEST DUP1 PUSH1 0x0 DUP2 SWAP1 SSTORE POP POP JUMP JUMPDEST PUSH1 0x1 DUP1 SLOAD SWAP1 PUSH2 0x100 EXP SWAP1 DIV PUSH1 0xFF AND DUP2 JUMP JUMPDEST DUP1 PUSH1 0x1 PUSH1 0x0 PUSH2 0x100 EXP DUP2 SLOAD DUP2 PUSH1 0xFF MUL NOT AND SWAP1 DUP4 ISZERO ISZERO MUL OR SWAP1 SSTORE POP POP JUMP JUMPDEST DUP3 DUP1 SLOAD PUSH2 0x4D3 SWAP1 PUSH2 0x961 JUMP JUMPDEST SWAP1 PUSH1 0x0 MSTORE PUSH1 0x20 PUSH1 0x0 KECCAK256 SWAP1 PUSH1 0x1F ADD PUSH1 0x20 SWAP1 DIV DUP2 ADD SWAP3 DUP3 PUSH2 0x4F5 JUMPI PUSH1 0x0 DUP6 SSTORE PUSH2 0x53C JUMP JUMPDEST DUP3 PUSH1 0x1F LT PUSH2 0x50E JUMPI DUP1 MLOAD PUSH1 0xFF NOT AND DUP4 DUP1 ADD OR DUP6 SSTORE PUSH2 0x53C JUMP JUMPDEST DUP3 DUP1 ADD PUSH1 0x1 ADD DUP6 SSTORE DUP3 ISZERO PUSH2 0x53C JUMPI SWAP2 DUP3 ADD JUMPDEST DUP3 DUP2 GT ISZERO PUSH2 0x53B JUMPI DUP3 MLOAD DUP3 SSTORE SWAP2 PUSH1 0x20 ADD SWAP2 SWAP1 PUSH1 0x1 ADD SWAP1 PUSH2 0x520 JUMP JUMPDEST JUMPDEST POP SWAP1 POP PUSH2 0x549 SWAP2 SWAP1 PUSH2 0x54D JUMP JUMPDEST POP SWAP1 JUMP JUMPDEST JUMPDEST DUP1 DUP3 GT ISZERO PUSH2 0x566 JUMPI PUSH1 0x0 DUP2 PUSH1 0x0 SWAP1 SSTORE POP PUSH1 0x1 ADD PUSH2 0x54E JUMP JUMPDEST POP SWAP1 JUMP JUMPDEST PUSH1 0x0 PUSH2 0x57D PUSH2 0x578 DUP5 PUSH2 0x853 JUMP JUMPDEST PUSH2 0x82E JUMP JUMPDEST SWAP1 POP DUP3 DUP2 MSTORE PUSH1 0x20 DUP2 ADD DUP5 DUP5 DUP5 ADD GT ISZERO PUSH2 0x599 JUMPI PUSH2 0x598 PUSH2 0xA80 JUMP JUMPDEST JUMPDEST PUSH2 0x5A4 DUP5 DUP3 DUP6 PUSH2 0x8F5 JUMP JUMPDEST POP SWAP4 SWAP3 POP POP POP JUMP JUMPDEST PUSH1 0x0 DUP2 CALLDATALOAD SWAP1 POP PUSH2 0x5BB DUP2 PUSH2 0xAA0 JUMP JUMPDEST SWAP3 SWAP2 POP POP JUMP JUMPDEST PUSH1 0x0 DUP2 CALLDATALOAD SWAP1 POP PUSH2 0x5D0 DUP2 PUSH2 0xAB7 JUMP JUMPDEST SWAP3 SWAP2 POP POP JUMP JUMPDEST PUSH1 0x0 DUP3 PUSH1 0x1F DUP4 ADD SLT PUSH2 0x5EB JUMPI PUSH2 0x5EA PUSH2 0xA7B JUMP JUMPDEST JUMPDEST DUP2 CALLDATALOAD PUSH2 0x5FB DUP5 DUP3 PUSH1 0x20 DUP7 ADD PUSH2 0x56A JUMP JUMPDEST SWAP2 POP POP SWAP3 SWAP2 POP POP JUMP JUMPDEST PUSH1 0x0 DUP2 CALLDATALOAD SWAP1 POP PUSH2 0x613 DUP2 PUSH2 0xACE JUMP JUMPDEST SWAP3 SWAP2 POP POP JUMP JUMPDEST PUSH1 0x0 DUP2 CALLDATALOAD SWAP1 POP PUSH2 0x628 DUP2 PUSH2 0xAE5 JUMP JUMPDEST SWAP3 SWAP2 POP POP JUMP JUMPDEST PUSH1 0x0 PUSH1 0x20 DUP3 DUP5 SUB SLT ISZERO PUSH2 0x644 JUMPI PUSH2 0x643 PUSH2 0xA8A JUMP JUMPDEST JUMPDEST PUSH1 0x0 PUSH2 0x652 DUP5 DUP3 DUP6 ADD PUSH2 0x5AC JUMP JUMPDEST SWAP2 POP POP SWAP3 SWAP2 POP POP JUMP JUMPDEST PUSH1 0x0 PUSH1 0x20 DUP3 DUP5 SUB SLT ISZERO PUSH2 0x671 JUMPI PUSH2 0x670 PUSH2 0xA8A JUMP JUMPDEST JUMPDEST PUSH1 0x0 PUSH2 0x67F DUP5 DUP3 DUP6 ADD PUSH2 0x5C1 JUMP JUMPDEST SWAP2 POP POP SWAP3 SWAP2 POP POP JUMP JUMPDEST PUSH1 0x0 PUSH1 0x20 DUP3 DUP5 SUB SLT ISZERO PUSH2 0x69E JUMPI PUSH2 0x69D PUSH2 0xA8A JUMP JUMPDEST JUMPDEST PUSH1 0x0 DUP3 ADD CALLDATALOAD PUSH8 0xFFFFFFFFFFFFFFFF DUP2 GT ISZERO PUSH2 0x6BC JUMPI PUSH2 0x6BB PUSH2 0xA85 JUMP JUMPDEST JUMPDEST PUSH2 0x6C8 DUP5 DUP3 DUP6 ADD PUSH2 0x5D6 JUMP JUMPDEST SWAP2 POP POP SWAP3 SWAP2 POP POP JUMP JUMPDEST PUSH1 0x0 PUSH1 0x20 DUP3 DUP5 SUB SLT ISZERO PUSH2 0x6E7 JUMPI PUSH2 0x6E6 PUSH2 0xA8A JUMP JUMPDEST JUMPDEST PUSH1 0x0 PUSH2 0x6F5 DUP5 DUP3 DUP6 ADD PUSH2 0x604 JUMP JUMPDEST SWAP2 POP POP SWAP3 SWAP2 POP POP JUMP JUMPDEST PUSH1 0x0 PUSH1 0x20 DUP3 DUP5 SUB SLT ISZERO PUSH2 0x714 JUMPI PUSH2 0x713 PUSH2 0xA8A JUMP JUMPDEST JUMPDEST PUSH1 0x0 PUSH2 0x722 DUP5 DUP3 DUP6 ADD PUSH2 0x619 JUMP JUMPDEST SWAP2 POP POP SWAP3 SWAP2 POP POP JUMP JUMPDEST PUSH2 0x734 DUP2 PUSH2 0x8A0 JUMP JUMPDEST DUP3 MSTORE POP POP JUMP JUMPDEST PUSH2 0x743 DUP2 PUSH2 0x8B2 JUMP JUMPDEST DUP3 MSTORE POP POP JUMP JUMPDEST PUSH1 0x0 PUSH2 0x754 DUP3 PUSH2 0x884 JUMP JUMPDEST PUSH2 0x75E DUP2 DUP6 PUSH2 0x88F JUMP JUMPDEST SWAP4 POP PUSH2 0x76E DUP2 DUP6 PUSH1 0x20 DUP7 ADD PUSH2 0x904 JUMP JUMPDEST PUSH2 0x777 DUP2 PUSH2 0xA8F JUMP JUMPDEST DUP5 ADD SWAP2 POP POP SWAP3 SWAP2 POP POP JUMP JUMPDEST PUSH2 0x78B DUP2 PUSH2 0x8DE JUMP JUMPDEST DUP3 MSTORE POP POP JUMP JUMPDEST PUSH2 0x79A DUP2 PUSH2 0x8E8 JUMP JUMPDEST DUP3 MSTORE POP POP JUMP JUMPDEST PUSH1 0x0 PUSH1 0x20 DUP3 ADD SWAP1 POP PUSH2 0x7B5 PUSH1 0x0 DUP4 ADD DUP5 PUSH2 0x72B JUMP JUMPDEST SWAP3 SWAP2 POP POP JUMP JUMPDEST PUSH1 0x0 PUSH1 0x20 DUP3 ADD SWAP1 POP PUSH2 0x7D0 PUSH1 0x0 DUP4 ADD DUP5 PUSH2 0x73A JUMP JUMPDEST SWAP3 SWAP2 POP POP JUMP JUMPDEST PUSH1 0x0 PUSH1 0x20 DUP3 ADD SWAP1 POP DUP2 DUP2 SUB PUSH1 0x0 DUP4 ADD MSTORE PUSH2 0x7F0 DUP2 DUP5 PUSH2 0x749 JUMP JUMPDEST SWAP1 POP SWAP3 SWAP2 POP POP JUMP JUMPDEST PUSH1 0x0 PUSH1 0x20 DUP3 ADD SWAP1 POP PUSH2 0x80D PUSH1 0x0 DUP4 ADD DUP5 PUSH2 0x782 JUMP JUMPDEST SWAP3 SWAP2 POP POP JUMP JUMPDEST PUSH1 0x0 PUSH1 0x20 DUP3 ADD SWAP1 POP PUSH2 0x828 PUSH1 0x0 DUP4 ADD DUP5 PUSH2 0x791 JUMP JUMPDEST SWAP3 SWAP2 POP POP JUMP JUMPDEST PUSH1 0x0 PUSH2 0x838 PUSH2 0x849 JUMP JUMPDEST SWAP1 POP PUSH2 0x844 DUP3 DUP3 PUSH2 0x993 JUMP JUMPDEST SWAP2 SWAP1 POP JUMP JUMPDEST PUSH1 0x0 PUSH1 0x40 MLOAD SWAP1 POP SWAP1 JUMP JUMPDEST PUSH1 0x0 PUSH8 0xFFFFFFFFFFFFFFFF DUP3 GT ISZERO PUSH2 0x86E JUMPI PUSH2 0x86D PUSH2 0xA4C JUMP JUMPDEST JUMPDEST PUSH2 0x877 DUP3 PUSH2 0xA8F JUMP JUMPDEST SWAP1 POP PUSH1 0x20 DUP2 ADD SWAP1 POP SWAP2 SWAP1 POP JUMP JUMPDEST PUSH1 0x0 DUP2 MLOAD SWAP1 POP SWAP2 SWAP1 POP JUMP JUMPDEST PUSH1 0x0 DUP3 DUP3 MSTORE PUSH1 0x20 DUP3 ADD SWAP1 POP SWAP3 SWAP2 POP POP JUMP JUMPDEST PUSH1 0x0 PUSH2 0x8AB DUP3 PUSH2 0x8BE JUMP JUMPDEST SWAP1 POP SWAP2 SWAP1 POP JUMP JUMPDEST PUSH1 0x0 DUP2 ISZERO ISZERO SWAP1 POP SWAP2 SWAP1 POP JUMP JUMPDEST PUSH1 0x0 PUSH20 0xFFFFFFFFFFFFFFFFFFFFFFFFFFFFFFFFFFFFFFFF DUP3 AND SWAP1 POP SWAP2 SWAP1 POP JUMP JUMPDEST PUSH1 0x0 DUP2 SWAP1 POP SWAP2 SWAP1 POP JUMP JUMPDEST PUSH1 0x0 PUSH1 0xFF DUP3 AND SWAP1 POP SWAP2 SWAP1 POP JUMP JUMPDEST DUP3 DUP2 DUP4 CALLDATACOPY PUSH1 0x0 DUP4 DUP4 ADD MSTORE POP POP POP JUMP JUMPDEST PUSH1 0x0 JUMPDEST DUP4 DUP2 LT ISZERO PUSH2 0x922 JUMPI DUP1 DUP3 ADD MLOAD DUP2 DUP5 ADD MSTORE PUSH1 0x20 DUP2 ADD SWAP1 POP PUSH2 0x907 JUMP JUMPDEST DUP4 DUP2 GT ISZERO PUSH2 0x931 JUMPI PUSH1 0x0 DUP5 DUP5 ADD MSTORE JUMPDEST POP POP POP POP JUMP JUMPDEST PUSH1 0x0 PUSH2 0x942 DUP3 PUSH2 0x8E8 JUMP JUMPDEST SWAP2 POP PUSH1 0x0 DUP3 EQ ISZERO PUSH2 0x956 JUMPI PUSH2 0x955 PUSH2 0x9EE JUMP JUMPDEST JUMPDEST PUSH1 0x1 DUP3 SUB SWAP1 POP SWAP2 SWAP1 POP JUMP JUMPDEST PUSH1 0x0 PUSH1 0x2 DUP3 DIV SWAP1 POP PUSH1 0x1 DUP3 AND DUP1 PUSH2 0x979 JUMPI PUSH1 0x7F DUP3 AND SWAP2 POP JUMPDEST PUSH1 0x20 DUP3 LT DUP2 EQ ISZERO PUSH2 0x98D JUMPI PUSH2 0x98C PUSH2 0xA1D JUMP JUMPDEST JUMPDEST POP SWAP2 SWAP1 POP JUMP JUMPDEST PUSH2 0x99C DUP3 PUSH2 0xA8F JUMP JUMPDEST DUP2 ADD DUP2 DUP2 LT PUSH8 0xFFFFFFFFFFFFFFFF DUP3 GT OR ISZERO PUSH2 0x9BB JUMPI PUSH2 0x9BA PUSH2 0xA4C JUMP JUMPDEST JUMPDEST DUP1 PUSH1 0x40 MSTORE POP POP POP JUMP JUMPDEST PUSH1 0x0 PUSH2 0x9CF DUP3 PUSH2 0x8E8 JUMP JUMPDEST SWAP2 POP PUSH1 0xFF DUP3 EQ ISZERO PUSH2 0x9E3 JUMPI PUSH2 0x9E2 PUSH2 0x9EE JUMP JUMPDEST JUMPDEST PUSH1 0x1 DUP3 ADD SWAP1 POP SWAP2 SWAP1 POP JUMP JUMPDEST PUSH32 0x4E487B7100000000000000000000000000000000000000000000000000000000 PUSH1 0x0 MSTORE PUSH1 0x11 PUSH1 0x4 MSTORE PUSH1 0x24 PUSH1 0x0 REVERT JUMPDEST PUSH32 0x4E487B7100000000000000000000000000000000000000000000000000000000 PUSH1 0x0 MSTORE PUSH1 0x22 PUSH1 0x4 MSTORE PUSH1 0x24 PUSH1 0x0 REVERT JUMPDEST PUSH32 0x4E487B7100000000000000000000000000000000000000000000000000000000 PUSH1 0x0 MSTORE PUSH1 0x41 PUSH1 0x4 MSTORE PUSH1 0x24 PUSH1 0x0 REVERT JUMPDEST PUSH1 0x0 DUP1 REVERT JUMPDEST PUSH1 0x0 DUP1 REVERT JUMPDEST PUSH1 0x0 DUP1 REVERT JUMPDEST PUSH1 0x0 DUP1 REVERT JUMPDEST PUSH1 0x0 PUSH1 0x1F NOT PUSH1 0x1F DUP4 ADD AND SWAP1 POP SWAP2 SWAP1 POP JUMP JUMPDEST PUSH2 0xAA9 DUP2 PUSH2 0x8A0 JUMP JUMPDEST DUP2 EQ PUSH2 0xAB4 JUMPI PUSH1 0x0 DUP1 REVERT JUMPDEST POP JUMP JUMPDEST PUSH2 0xAC0 DUP2 PUSH2 0x8B2 JUMP JUMPDEST DUP2 EQ PUSH2 0xACB JUMPI PUSH1 0x0 DUP1 REVERT JUMPDEST POP JUMP JUMPDEST PUSH2 0xAD7 DUP2 PUSH2 0x8DE JUMP JUMPDEST DUP2 EQ PUSH2 0xAE2 JUMPI PUSH1 0x0 DUP1 REVERT JUMPDEST POP JUMP JUMPDEST PUSH2 0xAEE DUP2 PUSH2 0x8E8 JUMP JUMPDEST DUP2 EQ PUSH2 0xAF9 JUMPI PUSH1 0x0 DUP1 REVERT JUMPDEST POP JUMP INVALID LOG2 PUSH5 0x6970667358 0x22 SLT KECCAK256 0xB3 SGT ADDRESS SMOD MUL SDIV ORIGIN DUP14 MLOAD DUP15 SWAP4 COINBASE 0xC8 0x2A SWAP10 0xEA SWAP8 CALLDATALOAD 0xA6 0x29 SUB 0xEB 0xB8 CREATE PUSH18 0x109F71F6B7319764736F6C63430008070033 "
		},
		"gasEstimates": {
			"creation": {
				"codeDepositCost": "573200",
				"executionCost": "606",
				"totalCost": "573806"
			},
			"external": {
				"decrementMyUint8()": "26869",
				"getBalanceByAddress(address)": "3303",
				"getBalanceOfMyAddress()": "5197",
				"incrementMyUint()": "26891",
				"myAddress()": "2587",
				"myBool()": "2494",
				"myString()": "infinite",
				"myUint()": "2453",
				"myUint8()": "2584",
				"setMyAddress(address)": "24794",
				"setMyBool(bool)": "24767",
				"setMyString(string)": "infinite",
				"setMyUint8(uint8)": "24796",
				"setMyUnit(uint256)": "22564"
			}
		},
		"methodIdentifiers": {
			"decrementMyUint8()": "a0949422",
			"getBalanceByAddress(address)": "136d6a39",
			"getBalanceOfMyAddress()": "25324f69",
			"incrementMyUint()": "55b1ac8a",
			"myAddress()": "26b85ee1",
			"myBool()": "6deecdbe",
			"myString()": "492bfa18",
			"myUint()": "06540f7e",
			"myUint8()": "e2a4b2af",
			"setMyAddress(address)": "a8a7b895",
			"setMyBool(bool)": "eb1b30d9",
			"setMyString(string)": "82180568",
			"setMyUint8(uint8)": "4f25eada",
			"setMyUnit(uint256)": "b36cbc5f"
		}
	},
	"abi": [
		{
			"inputs": [],
			"name": "decrementMyUint8",
			"outputs": [],
			"stateMutability": "nonpayable",
			"type": "function"
		},
		{
			"inputs": [
				{
					"internalType": "address",
					"name": "_address",
					"type": "address"
				}
			],
			"name": "getBalanceByAddress",
			"outputs": [
				{
					"internalType": "uint256",
					"name": "",
					"type": "uint256"
				}
			],
			"stateMutability": "view",
			"type": "function"
		},
		{
			"inputs": [],
			"name": "getBalanceOfMyAddress",
			"outputs": [
				{
					"internalType": "uint256",
					"name": "",
					"type": "uint256"
				}
			],
			"stateMutability": "view",
			"type": "function"
		},
		{
			"inputs": [],
			"name": "incrementMyUint",
			"outputs": [],
			"stateMutability": "nonpayable",
			"type": "function"
		},
		{
			"inputs": [],
			"name": "myAddress",
			"outputs": [
				{
					"internalType": "address",
					"name": "",
					"type": "address"
				}
			],
			"stateMutability": "view",
			"type": "function"
		},
		{
			"inputs": [],
			"name": "myBool",
			"outputs": [
				{
					"internalType": "bool",
					"name": "",
					"type": "bool"
				}
			],
			"stateMutability": "view",
			"type": "function"
		},
		{
			"inputs": [],
			"name": "myString",
			"outputs": [
				{
					"internalType": "string",
					"name": "",
					"type": "string"
				}
			],
			"stateMutability": "view",
			"type": "function"
		},
		{
			"inputs": [],
			"name": "myUint",
			"outputs": [
				{
					"internalType": "uint256",
					"name": "",
					"type": "uint256"
				}
			],
			"stateMutability": "view",
			"type": "function"
		},
		{
			"inputs": [],
			"name": "myUint8",
			"outputs": [
				{
					"internalType": "uint8",
					"name": "",
					"type": "uint8"
				}
			],
			"stateMutability": "view",
			"type": "function"
		},
		{
			"inputs": [
				{
					"internalType": "address",
					"name": "_myAddress",
					"type": "address"
				}
			],
			"name": "setMyAddress",
			"outputs": [],
			"stateMutability": "nonpayable",
			"type": "function"
		},
		{
			"inputs": [
				{
					"internalType": "bool",
					"name": "_myBool",
					"type": "bool"
				}
			],
			"name": "setMyBool",
			"outputs": [],
			"stateMutability": "nonpayable",
			"type": "function"
		},
		{
			"inputs": [
				{
					"internalType": "string",
					"name": "_myString",
					"type": "string"
				}
			],
			"name": "setMyString",
			"outputs": [],
			"stateMutability": "nonpayable",
			"type": "function"
		},
		{
			"inputs": [
				{
					"internalType": "uint8",
					"name": "_myUint8",
					"type": "uint8"
				}
			],
			"name": "setMyUint8",
			"outputs": [],
			"stateMutability": "nonpayable",
			"type": "function"
		},
		{
			"inputs": [
				{
					"internalType": "uint256",
					"name": "_myUint",
					"type": "uint256"
				}
			],
			"name": "setMyUnit",
			"outputs": [],
			"stateMutability": "nonpayable",
			"type": "function"
		}
	]
}